:1000000071C000008EC000008CC000008AC00000DB
:1000100088C0000086C0000084C0000082C00000CC
:1000200080C000007EC000007CC000007AC00000DC
:1000300078C0000076C0000074C0000072C00000EC
:1000400070C000006EC000006CC000006AC00000FC
:1000500068C0000066C0000064C0000062C000000C
:1000600060C00000D9C100005CC000005AC00000A0
:1000700058C0000056C0000054C0000052C000002C
:1000800050C000004EC000004CC000004AC000003C
:1000900048C0000046C0000044C0000042C000004C
:1000A00040C000003EC000003CC000003AC000005C
:1000B00038C0000036C0000034C0000032C000006C
:1000C00030C000002EC000002CC000002AC000007C
:1000D00028C0000026C0000024C0000022C000008C
:1000E00020C0000011241FBECFEFD1E2DEBFCDBF84
:1000F00000E00CBF12E0A0E0B2E0EEE8F9E000E0C2
:100100000BBF02C007900D92AE34B107D9F724E0BF
:10011000AEE4B2E001C01D92AD35B207E1F7E2D125
:1001200034C46ECFE1ECF0E0808188698083E2EC3A
:10013000F0E080818660808387E690E09093C50040
:100140008093C400089580915602909157022091A7
:10015000540230915502226030935502209354028C
:1001600026E08227909357028093560220915002F6
:10017000309151022460309351022093500281B992
:1001800008959091C00095FFFCCF8093C60008951C
:100190000F931F93CF93DF938C01C0E0D0E006C094
:1001A000F801EC0FFD1F8081ECDF2196F801019032
:1001B0000020E9F73197E01BF10BCE17DF0780F342
:1001C000DF91CF911F910F9108954F925F926F929F
:1001D0007F928F929F92AF92BF92CF92DF92EF92D7
:1001E000FF920F931F93CF93DF93CDB7DEB7C45029
:1001F000D2400FB6F894DEBF0FBECDBF6BE572E004
:10020000CE01039616D389E292E0C2DF01E010E04E
:10021000C12CD12C612C712C412C512C8BE592E0FE
:10022000AE014F5F5F4F60E072E033D37C01009717
:1002300009F4DAC001301105B1F463E072E0F0D2E4
:10024000892B31F48BE092E0A3DF55245394C7C08F
:100250006AE172E0C701E4D2892B09F4BEC08FE1E4
:1002600092E096DFC1C00230110509F048C0552068
:1002700009F1B1D2009761F492B180915402892BB7
:1002800082B90F2EF2E56F2EF2E07F2EF02DA7C07F
:10029000019761F492B180915002892B82B90F2E9F
:1002A000FEE46F2EF2E07F2EF02D99C08FE192E0F8
:1002B0006FDF9AC0442009F492C04AE050E0BE01CA
:1002C0006D5F7D4F5DD1CD5FDD4FE881F981C3501A
:1002D000D240EE16FF0679F0208121110CC06D325C
:1002E00021E072078105910510F46B0178C08FE160
:1002F00092E04EDF79C08FE192E04ADF75C00330B3
:10030000110509F06CC05520B9F16EE372E098D286
:100310008E0D9F1DFC0110824AE050E0BE016D5F12
:100320007D4FC7012DD1CD5FDD4FE881F981C350ED
:10033000D240EE16FF06E1F02081211119C04B01D9
:100340005C01F1E08F1A9108A108B10827E8821634
:1003500023E19206A104B10438F4F30171836083B0
:1003600087E292E015DF3BC08FE192E011DF3CC0F5
:100370008FE192E00DDF38C0442089F14E01F3E0B7
:100380008F0E911CBC01C4016AD25C01C70100DF61
:1003900089E292E0FDDEC401FBDE89E292E0F8DE54
:1003A0008CE292E0F5DEA818B90807C0EADE21E089
:1003B000C21AD1088FEFA81AB80AF501E55AFD4F05
:1003C00080818D3019F0C114D10481F789E292E067
:1003D000DFDE87E292E0DCDE02C0442443940F5F5C
:1003E0001F4F80E090E01CCFCC5FDD4F0FB6F8943C
:1003F000DEBF0FBECDBFDF91CF911F910F91FF9058
:10040000EF90DF90CF90BF90AF909F908F907F90B4
:100410006F905F904F9008951F920F920FB60F92BA
:1004200011240BB60F922F933F934F935F936F93CB
:100430007F938F939F93AF93BF93EF93FF9380919D
:100440005802909159022091C600FC01E55AFD4FD7
:10045000208301969093590280935802811592400F
:1004600021F41092590210925802E0915802F09132
:100470005902E65AFD4F80818093C6008091580250
:1004800090915902FC01E65AFD4F20812D3031F048
:10049000FC01E75AFD4F80818D3089F4F89495DE98
:1004A00080E092E0EBE5F2E0DF019C011D9221503B
:1004B0003040E1F710925902109258027894FF915F
:1004C000EF91BF91AF919F918F917F916F915F91CC
:1004D0004F913F912F910F900BBE0F900FBE0F9039
:1004E0001F9018951FDE2FDE789480915202909114
:1004F00053020097A1F482B1282F30E0809154027A
:100500009091550282239323892B89F083E392E013
:100510003FDE92B180915402892782B908C0181633
:1005200019062CF401979093530280935202809104
:100530004E0290914F020097A1F482B1282F30E033
:10054000809150029091510282239323892B89F04C
:1005500080E492E01DDE92B180915002892782B939
:1005600008C0181619062CF4019790934F02809337
:100570004E028FE99FE00197F1F700C00000B5CF70
:100580003F924F925F926F927F928F929F92AF9223
:10059000BF92CF92DF92EF92FF920F931F93CF9370
:1005A000DF935C016B017A016115710519F0FB01A4
:1005B00091838083E114F10429F0C70102978397A6
:1005C00008F0E2C0E5012196F5011081812F90E04D
:1005D0001FD1892B11F05E01F5CF1D3229F4219630
:1005E000F501118101E007C01B3221F4E5012296DB
:1005F000F501118100E0E114F10409F1F0E1EF16D9
:10060000F10429F43EC010E3E114F10421F128E0E3
:10061000E216F10401F154F4E2E0EE16F10421F5E2
:10062000812C912CA12CB0E4BB2E3DC0FAE0EF163A
:10063000F10439F020E1E216F104B1F42FC01033D7
:1006400011F1FAE0EF2EF12CACEC8A2E982CA82CAC
:10065000ACE0BA2E28C078E0E72EF12C812C912C4A
:10066000A12CE0E1BE2E1FC060E070E080E090E8C9
:1006700097010F2C000C440B550B4CD149015A012A
:1006800012C0103359F488818F7D883509F0BBCFB3
:1006900019812296026080E1E82EF12C812C912CA8
:1006A000A12C68E0B62E40E060E070E0CB012701AD
:1006B0000F2C000C66087708FE0150ED352E310E28
:1006C00029E0231570F42FEB210F2A3118F439ECAF
:1006D000332E06C02FE9210F2A3110F529EA322ED8
:1006E000310E232D30E02E153F05D4F447FD15C003
:1006F00086169706A806B90668F0A3019201FBD0FA
:10070000630D711D811D911D61307105810520E80A
:10071000920710F04FEF01C041E021961081CCCF3D
:10072000202F2170C114D10471F0442329F02197A6
:10073000F601D183C08307C001FF19C02297F601DB
:10074000D183C08314C047FF12C0222329F060E088
:1007500070E080E090E804C06FEF7FEF8FEF9FE7DD
:1007600022E230E030935C0420935B0409C0222332
:1007700081F090958095709561957F4F8F4F9F4F39
:10078000462F372F282F12C040E030E020E090E0C5
:100790000DC097FFF5CF82E290E090935C048093C8
:1007A0005B046FEF7FEF8FEF9FE7EACF642F732F2C
:1007B000822FDF91CF911F910F91FF90EF90DF90EB
:1007C000CF90BF90AF909F908F907F906F905F90F1
:1007D0004F903F900895FC0188279927E894219134
:1007E0002032E9F3293010F02E30C8F32B3239F0E3
:1007F0002D3231F4689403C073D0820F911D219182
:1008000020532A30C8F31EF4909581959F4F089588
:1008100091116EC0803219F089508550D0F708953B
:10082000FB01DC018D91019080190110D9F3990B26
:100830000895FB01DC0101900D920020E1F708957D
:10084000DC015D91552331F0FB010190051601108B
:10085000E1F7B9F7809590958A0F9B1F0895FB01EA
:1008600051915523A9F0BF01DC014D91451741116C
:10087000E1F759F4CD010190002049F04D91401568
:100880004111C9F3FB014111EFCF81E090E00197E5
:100890000895FA01A191B081009719F41097E1F041
:1008A000CD01DC01CD010D90002011F4C00113C079
:1008B000FB012191222319F02015D9F7F3CFFB0179
:1008C0002191201519F41E92119606C02223C1F71A
:1008D0000D900020A1F7D001FA01A193B0830895F3
:1008E0007AE0979F902D879F802D910D1124089578
:1008F000992788270895DB018F939F932DD0BF916F
:10090000AF91A29F800D911DA39F900DB29F900D5E
:1009100011240895A1E21A2EAA1BBB1BFD010DC0D4
:10092000AA1FBB1FEE1FFF1FA217B307E407F5079F
:1009300020F0A21BB30BE40BF50B661F771F881F7B
:10094000991F1A9469F760957095809590959B0111
:10095000AC01BD01CF01089509D0A59F900DB49FB2
:10096000900DA49F800D911D11240895A29FB001A8
:10097000B39FC001A39F700D811D1124911DB29FD3
:0E098000700D811D1124911D0895F894FFCF74
:10098E00202C007365742D6C6564007365742D6C7A
:10099E00656420746573740D0A006563686F0045A5
:1009AE0052524F520D0A004F4B0D0A006461746192
:1009BE003A20006C65642D6F66663A20300A0D0091
:0E09CE006C65642D6F66663A20310A0D0000DC
:00000001FF
