S0130000436F64696E6754657374312E73726563EC
S113000071C000008EC000008CC000008AC00000D7
S113001088C0000086C0000084C0000082C00000C8
S113002080C000007EC000007CC000007AC00000D8
S113003078C0000076C0000074C0000072C00000E8
S113004070C000006EC000006CC000006AC00000F8
S113005068C0000066C0000064C0000062C0000008
S113006060C00000E7C100005CC000005AC000008E
S113007058C0000056C0000054C0000052C0000028
S113008050C000004EC000004CC000004AC0000038
S113009048C0000046C0000044C0000042C0000048
S11300A040C000003EC000003CC000003AC0000058
S11300B038C0000036C0000034C0000032C0000068
S11300C030C000002EC000002CC000002AC0000078
S11300D028C0000026C0000024C0000022C0000088
S11300E020C0000011241FBECFEFD1E2DEBFCDBF80
S11300F000E00CBF12E0A0E0B2E0EAEAF9E000E0C0
S11301000BBF02C007900D92A833B107D9F724E0C2
S1130110A8E3B2E001C01D92A734B207E1F7F0D121
S113012042C46ECFE1ECF0E0808188698083E2EC28
S1130130F0E080818660808383E390E09093C50043
S11301408093C400089580914002909141022091CF
S11301503E0230913F02226030933F0220933E02E0
S113016026E08227909341028093400220913A0234
S113017030913B02246030933B0220933A0281B9D0
S113018008959091C00095FFFCCF8093C600089518
S11301900F931F93CF93DF938C01C0E0D0E006C090
S11301A0F801EC0FFD1F8081ECDF2196F80101902E
S11301B00020E9F73197E01BF10BCE17DF0780F33E
S11301C0DF91CF911F910F9108956F927F928F923B
S11301D09F92AF92BF92CF92DF92EF92FF920F93D2
S11301E01F93CF93DF93CDB7DEB7C450D2400FB681
S11301F0F894DEBF0FBECDBF65E472E0CE01039676
S113020026D38AE192E0C4DF01E010E0C12CD12CB6
S1130210A12CB12C612C712C85E492E0AE014F5FCE
S11302205F4F60E072E043D37C01009709F4ECC0B7
S11302300130110589F463E072E000D3892B09F4DD
S1130240D9C06BE072E0C701F9D2892B09F4D5C09B
S113025080E192E09DDFD8C00230110509F048C06A
S1130260772009F1C6D2009761F492B180913E02E1
S1130270892B82B90F2EFCE3AF2EF2E0BF2EF02DB6
S1130280BEC0019761F492B180913A02892B82B980
S11302900F2EF8E3AF2EF2E0BF2EF02DB0C080E1B8
S11302A092E076DFB1C0662009F4A9C04AE050E0CC
S11302B0BE016D5F7D4F72D1CD5FDD4FE881F98165
S11302C0C350D240EE16FF0679F0208121110CC0F4
S11302D06D3221E072078105910510F46B018FC026
S11302E080E192E055DF90C080E192E051DF8CC064
S11302F00330110509F083C07720A1F168E272E0B0
S1130300ADD28E0D9F1DFC0110824AE050E0BE016B
S11303106D5F7D4FC70142D1CD5FDD4FE881F9812B
S1130320C350D240EE16FF06C9F02081211116C039
S11303309B01AC012150310941095109273833414E
S11303404105510538F4F5017183608388E192E039
S11303501FDF55C080E192E01BDF56C080E192E0D0
S113036017DF52C0662009F44AC04E01F3E08F0E35
S1130370911CBC01C40181D27C01E818F9082AC08F
S11303808C3509F5F701EA5BFD4F90819837D9F474
S11303900DC0F701E80DF91DEB5BFD4F80818D3039
S11303A059F0EFDE2FEF821A920A02C0812C912CB1
S11303B084E0881691046CF3E1E0CE1AD108F4E0ED
S11303C0EF0EF11C07C0DDDE21E0C21AD1088FEF69
S11303D0E81AF80AF701EB5BFD4F80818D3019F0C4
S11303E0C114D10469F68AE192E0D2DE88E192E098
S11303F0CFDE05C07724739402C0662463940F5F34
S11304001F4F80E090E00ACFCC5FDD4F0FB6F89429
S1130410DEBF0FBECDBFDF91CF911F910F91FF9033
S1130420EF90DF90CF90BF90AF909F908F907F9090
S11304306F9008951F920F920FB60F9211240BB66E
S11304400F922F933F934F935F936F937F938F9369
S11304509F93AF93BF93EF93FF9380914202909148
S113046043022091C600FC01EB5BFD4F2083019603
S113047090934302809342028115924021F410929A
S1130480430210924202E0914202F0914302EC5B7B
S1130490FD4F80818093C600809142029091430277
S11304A0FC01EC5BFD4F20812D3031F0FC01ED5B54
S11304B0FD4F80818D3089F4F89487DE80E092E0EE
S11304C0E5E4F2E0DF019C011D9221503040E1F7A8
S11304D010924302109242027894FF91EF91BF91DF
S11304E0AF919F918F917F916F915F914F913F91C8
S11304F02F910F900BBE0F900FBE0F901F90189569
S113050011DE21DE789480913C0290913D020097A7
S1130510A1F482B1282F30E080913E0290913F02F5
S113052082239323892B89F08DE192E031DE92B10D
S113053080913E02892782B908C0181619062CF446
S1130540019790933D0280933C02809138029091F0
S113055039020097A1F482B1282F30E080913A0249
S113056090913B0282239323892B89F08AE292E0C3
S11305700FDE92B180913A02892782B908C0181619
S113058019062CF4019790933902809338028FE96D
S11305909FE00197F1F700C00000B5CF3F924F9262
S11305A05F926F927F928F929F92AF92BF92CF92FF
S11305B0DF92EF92FF920F931F93CF93DF935C012F
S11305C06B017A016115710519F0FB019183808338
S11305D0E114F10429F0C7010297839708F0E2C0FF
S11305E0E5012196F5011081812F90E01FD1892B1F
S11305F011F05E01F5CF1D3229F42196F501118128
S113060001E007C01B3221F4E5012296F5011181B6
S113061000E0E114F10409F1F0E1EF16F10429F42A
S11306203EC010E3E114F10421F128E0E216F104E4
S113063001F154F4E2E0EE16F10421F5812C912C41
S1130640A12CB0E4BB2E3DC0FAE0EF16F10439F062
S113065020E1E216F104B1F42FC0103311F1FAE0F5
S1130660EF2EF12CACEC8A2E982CA82CACE0BA2EF0
S113067028C078E0E72EF12C812C912CA12CE0E10C
S1130680BE2E1FC060E070E080E090E897010F2C60
S1130690000C440B550B4CD149015A0112C01033C4
S11306A059F488818F7D883509F0BBCF1981229652
S11306B0026080E1E82EF12C812C912CA12C68E0C1
S11306C0B62E40E060E070E0CB0127010F2C000C57
S11306D066087708FE0150ED352E310E29E023150A
S11306E070F42FEB210F2A3118F439EC332E06C0A5
S11306F02FE9210F2A3110F529EA322E310E232D4C
S113070030E02E153F05D4F447FD15C08616970634
S1130710A806B90668F0A3019201FBD0630D711D10
S1130720811D911D61307105810520E8920710F04B
S11307304FEF01C041E021961081CCCF202F2170D2
S1130740C114D10471F0442329F02197F601D18317
S1130750C08307C001FF19C02297F601D183C0836B
S113076014C047FF12C0222329F060E070E080E04B
S113077090E804C06FEF7FEF8FEF9FE722E230E055
S1130780309346042093450409C0222381F09095B8
S11307908095709561957F4F8F4F9F4F462F372FD0
S11307A0282F12C040E030E020E090E00DC097FF19
S11307B0F5CF82E290E090934604809345046FEF76
S11307C07FEF8FEF9FE7EACF642F732F822FDF91A4
S11307D0CF911F910F91FF90EF90DF90CF90BF903A
S11307E0AF909F908F907F906F905F904F903F90CD
S11307F00895FC0188279927E89421912032E9F390
S1130800293010F02E30C8F32B3239F02D3231F468
S1130810689403C073D0820F911D219120532A3014
S1130820C8F31EF4909581959F4F089591116EC061
S1130830803219F089508550D0F70895FB01DC010E
S11308408D91019080190110D9F3990B0895FB0142
S1130850DC0101900D920020E1F70895DC015D9127
S1130860552331F0FB01019005160110E1F7B9F7AA
S1130870809590958A0F9B1F0895FB0151915523F4
S1130880A9F0BF01DC014D9145174111E1F759F47D
S1130890CD010190002049F04D9140154111C9F35B
S11308A0FB014111EFCF81E090E001970895FA0137
S11308B0A191B081009719F41097E1F0CD01DC010A
S11308C0CD010D90002011F4C00113C0FB01219152
S11308D0222319F02015D9F7F3CFFB01219120151C
S11308E019F41E92119606C02223C1F70D90002020
S11308F0A1F7D001FA01A193B08308957AE0979FFC
S1130900902D879F802D910D112408959927882774
S11309100895DB018F939F932DD0BF91AF91A29F38
S1130920800D911DA39F900DB29F900D11240895E9
S1130930A1E21A2EAA1BBB1BFD010DC0AA1FBB1FDF
S1130940EE1FFF1FA217B307E407F50720F0A21B51
S1130950B30BE40BF50B661F771F881F991F1A94BE
S113096069F760957095809590959B01AC01BD01E8
S1130970CF01089509D0A59F900DB49F900DA49F19
S1130980800D911D11240895A29FB001B39FC00151
S1130990A39F700D811D1124911DB29F700D811DA7
S10D09A01124911D0895F894FFCF6F
S11309AA202C007365742D6C6564006563686F00A0
S11309BA4552524F520D0A004F4B0D0A006C6564A2
S11309CA2D6F66663A20300A0D006C65642D6F66D9
S10B09DA663A20310A0D000009
S9030000FC
